{
  "contractName": "uploadDoc",
  "abi": [
    {
      "anonymous": false,
      "inputs": [
        {
          "indexed": false,
          "internalType": "address",
          "name": "station",
          "type": "address"
        },
        {
          "indexed": false,
          "internalType": "bytes32",
          "name": "hash",
          "type": "bytes32"
        }
      ],
      "name": "docAdded",
      "type": "event"
    },
    {
      "inputs": [
        {
          "internalType": "bytes32",
          "name": "hash",
          "type": "bytes32"
        }
      ],
      "name": "add",
      "outputs": [],
      "stateMutability": "nonpayable",
      "type": "function"
    },
    {
      "inputs": [
        {
          "internalType": "bytes32",
          "name": "hash",
          "type": "bytes32"
        }
      ],
      "name": "validate",
      "outputs": [
        {
          "internalType": "uint256",
          "name": "",
          "type": "uint256"
        }
      ],
      "stateMutability": "view",
      "type": "function",
      "constant": true
    }
  ],
  "bytecode": "0x608060405234801561001057600080fd5b50610262806100206000396000f3fe608060405234801561001057600080fd5b50600436106100365760003560e01c80632e0126981461003b578063446bffba1461006b575b600080fd5b61005560048036038101906100509190610152565b610087565b6040516100629190610198565b60405180910390f35b61008560048036038101906100809190610152565b6100a3565b005b6000806000838152602001908152602001600020549050919050565b80600080828152602001908152602001600020546000146100c357600080fd5b43600080848152602001908152602001600020819055507ff1c0162b981755b115a1bb612b2702be7184318ef9faf620850ef75ca045cc0a338360405161010b929190610203565b60405180910390a15050565b600080fd5b6000819050919050565b61012f8161011c565b811461013a57600080fd5b50565b60008135905061014c81610126565b92915050565b60006020828403121561016857610167610117565b5b60006101768482850161013d565b91505092915050565b6000819050919050565b6101928161017f565b82525050565b60006020820190506101ad6000830184610189565b92915050565b600073ffffffffffffffffffffffffffffffffffffffff82169050919050565b60006101de826101b3565b9050919050565b6101ee816101d3565b82525050565b6101fd8161011c565b82525050565b600060408201905061021860008301856101e5565b61022560208301846101f4565b939250505056fea26469706673582212203475a29c065aa0da22868b86f1c46c7b47ccc7dee6624f69d81947690084885b64736f6c634300080d0033",
  "immutableReferences": {},
  "source": "// SPDX-License-Identifier: MIT\n\npragma solidity >=0.5.0 <0.9.0;\n\n/**\n * @title Power Generated\n * @dev Store & retrieve power generated by each station\n */\ncontract uploadDoc {\n\n    // mapping(address => uint256) public power;\n    mapping(bytes32 => uint256) private hashes;\n\n    event docAdded(address station, bytes32 hash);\n\n    modifier hashOnlyOnce(bytes32 hash) {\n        require(0 == hashes[hash]);\n        _;\n    }\n\n    function add(bytes32 hash) public hashOnlyOnce(hash) {\n        hashes[hash] = block.number;\n        emit docAdded(msg.sender, hash);\n    }\n\n    /**\n    * @return block number where this hash exists or zero\n    */\n    function validate(bytes32 hash) public view returns (uint256) {\n        return hashes[hash];\n    }\n}\n",
  "sourcePath": "/home/jigme/work/cc_MVP/contracts/uploadDoc.sol",
  "compiler": {
    "name": "solc",
    "version": "0.8.13+commit.abaa5c0e.Emscripten.clang"
  },
  "schemaVersion": "3.4.6",
  "updatedAt": "2022-04-04T06:19:24.299Z",
  "networkType": "ethereum",
  "devdoc": {
    "details": "Store & retrieve power generated by each station",
    "kind": "dev",
    "methods": {
      "validate(bytes32)": {
        "returns": {
          "_0": "block number where this hash exists or zero"
        }
      }
    },
    "title": "Power Generated",
    "version": 1
  },
  "userdoc": {
    "kind": "user",
    "methods": {},
    "version": 1
  }
}